{
  "contractName": "Voting",
  "abi": [
    {
      "inputs": [
        {
          "internalType": "string[]",
          "name": "_candidateNames",
          "type": "string[]"
        },
        {
          "internalType": "uint256",
          "name": "_durationInMinutes",
          "type": "uint256"
        }
      ],
      "stateMutability": "nonpayable",
      "type": "constructor"
    },
    {
      "inputs": [
        {
          "internalType": "uint256",
          "name": "",
          "type": "uint256"
        }
      ],
      "name": "candidates",
      "outputs": [
        {
          "internalType": "string",
          "name": "name",
          "type": "string"
        },
        {
          "internalType": "uint256",
          "name": "voteCount",
          "type": "uint256"
        }
      ],
      "stateMutability": "view",
      "type": "function",
      "constant": true
    },
    {
      "inputs": [
        {
          "internalType": "address",
          "name": "",
          "type": "address"
        }
      ],
      "name": "voters",
      "outputs": [
        {
          "internalType": "bool",
          "name": "",
          "type": "bool"
        }
      ],
      "stateMutability": "view",
      "type": "function",
      "constant": true
    },
    {
      "inputs": [],
      "name": "votingEnd",
      "outputs": [
        {
          "internalType": "uint256",
          "name": "",
          "type": "uint256"
        }
      ],
      "stateMutability": "view",
      "type": "function",
      "constant": true
    },
    {
      "inputs": [],
      "name": "votingStart",
      "outputs": [
        {
          "internalType": "uint256",
          "name": "",
          "type": "uint256"
        }
      ],
      "stateMutability": "view",
      "type": "function",
      "constant": true
    },
    {
      "inputs": [
        {
          "internalType": "string",
          "name": "_name",
          "type": "string"
        }
      ],
      "name": "addCandidate",
      "outputs": [],
      "stateMutability": "nonpayable",
      "type": "function"
    },
    {
      "inputs": [
        {
          "internalType": "uint256",
          "name": "_candidateIndex",
          "type": "uint256"
        }
      ],
      "name": "vote",
      "outputs": [],
      "stateMutability": "nonpayable",
      "type": "function"
    },
    {
      "inputs": [],
      "name": "getAllVotesOfCandiates",
      "outputs": [
        {
          "components": [
            {
              "internalType": "string",
              "name": "name",
              "type": "string"
            },
            {
              "internalType": "uint256",
              "name": "voteCount",
              "type": "uint256"
            }
          ],
          "internalType": "struct Voting.Candidate[]",
          "name": "",
          "type": "tuple[]"
        }
      ],
      "stateMutability": "view",
      "type": "function",
      "constant": true
    },
    {
      "inputs": [],
      "name": "getVotingStatus",
      "outputs": [
        {
          "internalType": "bool",
          "name": "",
          "type": "bool"
        }
      ],
      "stateMutability": "view",
      "type": "function",
      "constant": true
    },
    {
      "inputs": [],
      "name": "getRemainingTime",
      "outputs": [
        {
          "internalType": "uint256",
          "name": "",
          "type": "uint256"
        }
      ],
      "stateMutability": "view",
      "type": "function",
      "constant": true
    }
  ],
  "bytecode": "0x60806040523480156200001157600080fd5b50604051620019b8380380620019b8833981810160405281019062000037919062000419565b60005b8251811015620000dc57600060405180604001604052808584815181106200006757620000666200047f565b5b60200260200101518152602001600081525090806001815401808255809150506001900390600052602060002090600202016000909190919091506000820151816000019081620000b99190620006f5565b506020820151816001015550508080620000d3906200080b565b9150506200003a565b5033600160006101000a81548173ffffffffffffffffffffffffffffffffffffffff021916908373ffffffffffffffffffffffffffffffffffffffff16021790555042600381905550603c8162000134919062000858565b42620001419190620008a3565b6004819055505050620008de565b6000604051905090565b600080fd5b600080fd5b600080fd5b6000601f19601f8301169050919050565b7f4e487b7100000000000000000000000000000000000000000000000000000000600052604160045260246000fd5b620001b38262000168565b810181811067ffffffffffffffff82111715620001d557620001d462000179565b5b80604052505050565b6000620001ea6200014f565b9050620001f88282620001a8565b919050565b600067ffffffffffffffff8211156200021b576200021a62000179565b5b602082029050602081019050919050565b600080fd5b600080fd5b600067ffffffffffffffff82111562000254576200025362000179565b5b6200025f8262000168565b9050602081019050919050565b60005b838110156200028c5780820151818401526020810190506200026f565b60008484015250505050565b6000620002af620002a98462000236565b620001de565b905082815260208101848484011115620002ce57620002cd62000231565b5b620002db8482856200026c565b509392505050565b600082601f830112620002fb57620002fa62000163565b5b81516200030d84826020860162000298565b91505092915050565b60006200032d6200032784620001fd565b620001de565b905080838252602082019050602084028301858111156200035357620003526200022c565b5b835b81811015620003a157805167ffffffffffffffff8111156200037c576200037b62000163565b5b8086016200038b8982620002e3565b8552602085019450505060208101905062000355565b5050509392505050565b600082601f830112620003c357620003c262000163565b5b8151620003d584826020860162000316565b91505092915050565b6000819050919050565b620003f381620003de565b8114620003ff57600080fd5b50565b6000815190506200041381620003e8565b92915050565b6000806040838503121562000433576200043262000159565b5b600083015167ffffffffffffffff8111156200045457620004536200015e565b5b6200046285828601620003ab565b9250506020620004758582860162000402565b9150509250929050565b7f4e487b7100000000000000000000000000000000000000000000000000000000600052603260045260246000fd5b600081519050919050565b7f4e487b7100000000000000000000000000000000000000000000000000000000600052602260045260246000fd5b600060028204905060018216806200050157607f821691505b602082108103620005175762000516620004b9565b5b50919050565b60008190508160005260206000209050919050565b60006020601f8301049050919050565b60008160020a8302905092915050565b600060088302620005847fffffffffffffffffffffffffffffffffffffffffffffffffffffffffffffffff8262000542565b62000590868362000542565b95508019841693508086168417925050509392505050565b6000819050919050565b6000620005d3620005cd620005c784620003de565b620005a8565b620003de565b9050919050565b6000819050919050565b620005ef83620005b2565b62000607620005fe82620005da565b84845462000552565b825550505050565b600090565b6200061e6200060f565b6200062b818484620005e4565b505050565b5b8181101562000653576200064760008262000614565b60018101905062000631565b5050565b601f821115620006a2576200066c816200051d565b620006778462000532565b8101602085101562000687578190505b6200069f620006968562000532565b83018262000630565b50505b505050565b60008160020a8304905092915050565b6000620006ca60001984600802620006a7565b1980831691505092915050565b6000620006e58383620006b7565b9150826002028217905092915050565b6200070082620004ae565b67ffffffffffffffff8111156200071c576200071b62000179565b5b620007288254620004e8565b6200073582828562000657565b600060209050601f8311600181146200076d576000841562000758578287015190505b620007648582620006d7565b865550620007d4565b601f1984166200077d866200051d565b60005b82811015620007a75784890151825560018201915060208501945060208101905062000780565b86831015620007c75784890151620007c3601f891682620006b7565b8355505b6001600288020188555050505b505050505050565b7f4e487b7100000000000000000000000000000000000000000000000000000000600052601160045260246000fd5b60006200081882620003de565b91507fffffffffffffffffffffffffffffffffffffffffffffffffffffffffffffffff82036200084d576200084c620007dc565b5b600182019050919050565b60006200086582620003de565b91506200087283620003de565b92508282026200088281620003de565b915082820484148315176200089c576200089b620007dc565b5b5092915050565b6000620008b082620003de565b9150620008bd83620003de565b9250828201905080821115620008d857620008d7620007dc565b5b92915050565b6110ca80620008ee6000396000f3fe608060405234801561001057600080fd5b50600436106100b0576000357c0100000000000000000000000000000000000000000000000000000000900480634d6bda5f116100835780634d6bda5f1461013c578063581c281c1461015a57806385a3863514610178578063a3ec138d14610196578063efb98bcf146101c6576100b0565b80630121b93f146100b5578063101158af146100d15780633477ee2e146100ef578063462e91ec14610120575b600080fd5b6100cf60048036038101906100ca91906106c2565b6101e4565b005b6100d961034e565b6040516100e691906106fe565b60405180910390f35b610109600480360381019061010491906106c2565b610354565b6040516101179291906107a9565b60405180910390f35b61013a6004803603810190610135919061090e565b610410565b005b6101446104d0565b6040516101519190610aaf565b60405180910390f35b6101626105cb565b60405161016f9190610aec565b60405180910390f35b6101806105e5565b60405161018d91906106fe565b60405180910390f35b6101b060048036038101906101ab9190610b65565b6105eb565b6040516101bd9190610aec565b60405180910390f35b6101ce61060b565b6040516101db91906106fe565b60405180910390f35b600260003373ffffffffffffffffffffffffffffffffffffffff1673ffffffffffffffffffffffffffffffffffffffff16815260200190815260200160002060009054906101000a900460ff1615610271576040517f08c379a000000000000000000000000000000000000000000000000000000000815260040161026890610bde565b60405180910390fd5b60008054905081106102b8576040517f08c379a00000000000000000000000000000000000000000000000000000000081526004016102af90610c4a565b60405180910390fd5b600081815481106102cc576102cb610c6a565b5b906000526020600020906002020160010160008154809291906102ee90610cc8565b91905055506001600260003373ffffffffffffffffffffffffffffffffffffffff1673ffffffffffffffffffffffffffffffffffffffff16815260200190815260200160002060006101000a81548160ff02191690831515021790555050565b60035481565b6000818154811061036457600080fd5b906000526020600020906002020160009150905080600001805461038790610d3f565b80601f01602080910402602001604051908101604052809291908181526020018280546103b390610d3f565b80156104005780601f106103d557610100808354040283529160200191610400565b820191906000526020600020905b8154815290600101906020018083116103e357829003601f168201915b5050505050908060010154905082565b600160009054906101000a900473ffffffffffffffffffffffffffffffffffffffff1673ffffffffffffffffffffffffffffffffffffffff163373ffffffffffffffffffffffffffffffffffffffff161461046a57600080fd5b600060405180604001604052808381526020016000815250908060018154018082558091505060019003906000526020600020906002020160009091909190915060008201518160000190816104c09190610f22565b5060208201518160010155505050565b60606000805480602002602001604051908101604052809291908181526020016000905b828210156105c2578382906000526020600020906002020160405180604001604052908160008201805461052790610d3f565b80601f016020809104026020016040519081016040528092919081815260200182805461055390610d3f565b80156105a05780601f10610575576101008083540402835291602001916105a0565b820191906000526020600020905b81548152906001019060200180831161058357829003601f168201915b50505050508152602001600182015481525050815260200190600101906104f4565b50505050905090565b600060035442101580156105e0575060045442105b905090565b60045481565b60026020528060005260406000206000915054906101000a900460ff1681565b6000600354421015610652576040517f08c379a000000000000000000000000000000000000000000000000000000000815260040161064990611040565b60405180910390fd5b60045442106106645760009050610675565b426004546106729190611060565b90505b90565b6000604051905090565b600080fd5b600080fd5b6000819050919050565b61069f8161068c565b81146106aa57600080fd5b50565b6000813590506106bc81610696565b92915050565b6000602082840312156106d8576106d7610682565b5b60006106e6848285016106ad565b91505092915050565b6106f88161068c565b82525050565b600060208201905061071360008301846106ef565b92915050565b600081519050919050565b600082825260208201905092915050565b60005b83811015610753578082015181840152602081019050610738565b60008484015250505050565b6000601f19601f8301169050919050565b600061077b82610719565b6107858185610724565b9350610795818560208601610735565b61079e8161075f565b840191505092915050565b600060408201905081810360008301526107c38185610770565b90506107d260208301846106ef565b9392505050565b600080fd5b600080fd5b7f4e487b7100000000000000000000000000000000000000000000000000000000600052604160045260246000fd5b61081b8261075f565b810181811067ffffffffffffffff8211171561083a576108396107e3565b5b80604052505050565b600061084d610678565b90506108598282610812565b919050565b600067ffffffffffffffff821115610879576108786107e3565b5b6108828261075f565b9050602081019050919050565b82818337600083830152505050565b60006108b16108ac8461085e565b610843565b9050828152602081018484840111156108cd576108cc6107de565b5b6108d884828561088f565b509392505050565b600082601f8301126108f5576108f46107d9565b5b813561090584826020860161089e565b91505092915050565b60006020828403121561092457610923610682565b5b600082013567ffffffffffffffff81111561094257610941610687565b5b61094e848285016108e0565b91505092915050565b600081519050919050565b600082825260208201905092915050565b6000819050602082019050919050565b600082825260208201905092915050565b600061099f82610719565b6109a98185610983565b93506109b9818560208601610735565b6109c28161075f565b840191505092915050565b6109d68161068c565b82525050565b600060408301600083015184820360008601526109f98282610994565b9150506020830151610a0e60208601826109cd565b508091505092915050565b6000610a2583836109dc565b905092915050565b6000602082019050919050565b6000610a4582610957565b610a4f8185610962565b935083602082028501610a6185610973565b8060005b85811015610a9d5784840389528151610a7e8582610a19565b9450610a8983610a2d565b925060208a01995050600181019050610a65565b50829750879550505050505092915050565b60006020820190508181036000830152610ac98184610a3a565b905092915050565b60008115159050919050565b610ae681610ad1565b82525050565b6000602082019050610b016000830184610add565b92915050565b600073ffffffffffffffffffffffffffffffffffffffff82169050919050565b6000610b3282610b07565b9050919050565b610b4281610b27565b8114610b4d57600080fd5b50565b600081359050610b5f81610b39565b92915050565b600060208284031215610b7b57610b7a610682565b5b6000610b8984828501610b50565b91505092915050565b7f596f75206861766520616c726561647920766f7465642e000000000000000000600082015250565b6000610bc8601783610724565b9150610bd382610b92565b602082019050919050565b60006020820190508181036000830152610bf781610bbb565b9050919050565b7f496e76616c69642063616e64696461746520696e6465782e0000000000000000600082015250565b6000610c34601883610724565b9150610c3f82610bfe565b602082019050919050565b60006020820190508181036000830152610c6381610c27565b9050919050565b7f4e487b7100000000000000000000000000000000000000000000000000000000600052603260045260246000fd5b7f4e487b7100000000000000000000000000000000000000000000000000000000600052601160045260246000fd5b6000610cd38261068c565b91507fffffffffffffffffffffffffffffffffffffffffffffffffffffffffffffffff8203610d0557610d04610c99565b5b600182019050919050565b7f4e487b7100000000000000000000000000000000000000000000000000000000600052602260045260246000fd5b60006002820490506001821680610d5757607f821691505b602082108103610d6a57610d69610d10565b5b50919050565b60008190508160005260206000209050919050565b60006020601f8301049050919050565b60008160020a8302905092915050565b600060088302610dd57fffffffffffffffffffffffffffffffffffffffffffffffffffffffffffffffff82610d95565b610ddf8683610d95565b95508019841693508086168417925050509392505050565b6000819050919050565b6000610e1c610e17610e128461068c565b610df7565b61068c565b9050919050565b6000819050919050565b610e3683610e01565b610e4a610e4282610e23565b848454610da5565b825550505050565b600090565b610e5f610e52565b610e6a818484610e2d565b505050565b5b81811015610e8e57610e83600082610e57565b600181019050610e70565b5050565b601f821115610ed357610ea481610d70565b610ead84610d85565b81016020851015610ebc578190505b610ed0610ec885610d85565b830182610e6f565b50505b505050565b60008160020a8304905092915050565b6000610ef960001984600802610ed8565b1980831691505092915050565b6000610f128383610ee8565b9150826002028217905092915050565b610f2b82610719565b67ffffffffffffffff811115610f4457610f436107e3565b5b610f4e8254610d3f565b610f59828285610e92565b600060209050601f831160018114610f8c5760008415610f7a578287015190505b610f848582610f06565b865550610fec565b601f198416610f9a86610d70565b60005b82811015610fc257848901518255600182019150602085019450602081019050610f9d565b86831015610fdf5784890151610fdb601f891682610ee8565b8355505b6001600288020188555050505b505050505050565b7f566f74696e6720686173206e6f742073746172746564207965742e0000000000600082015250565b600061102a601b83610724565b915061103582610ff4565b602082019050919050565b600060208201905081810360008301526110598161101d565b9050919050565b600061106b8261068c565b91506110768361068c565b925082820390508181111561108e5761108d610c99565b5b9291505056fea264697066735822122039aea865a70aefab7ba7a6dd3fde37cc90826f6ea9c2a941d85e3b1b40d56d0564736f6c63430008140033",
  "immutableReferences": {},
  "source": "// SPDX-License-Identifier: MIT\r\npragma solidity ^0.8.0;\r\n\r\ncontract Voting {\r\n    struct Candidate {\r\n        string name;\r\n        uint256 voteCount;\r\n    }\r\n\r\n    Candidate[] public candidates;\r\n    address owner;\r\n    mapping(address => bool) public voters;\r\n\r\n    uint256 public votingStart;\r\n    uint256 public votingEnd;\r\n\r\nconstructor(string[] memory _candidateNames, uint256 _durationInMinutes) {\r\n    for (uint256 i = 0; i < _candidateNames.length; i++) {\r\n        candidates.push(Candidate({\r\n            name: _candidateNames[i],\r\n            voteCount: 0\r\n        }));\r\n    }\r\n    owner = msg.sender;\r\n    votingStart = block.timestamp;\r\n    votingEnd = block.timestamp + (_durationInMinutes * 1 minutes);\r\n}\r\n\r\n    modifier onlyOwner {\r\n        require(msg.sender == owner);\r\n        _;\r\n    }\r\n\r\n    function addCandidate(string memory _name) public onlyOwner {\r\n        candidates.push(Candidate({\r\n                name: _name,\r\n                voteCount: 0\r\n        }));\r\n    }\r\n\r\n    function vote(uint256 _candidateIndex) public {\r\n        require(!voters[msg.sender], \"You have already voted.\");\r\n        require(_candidateIndex < candidates.length, \"Invalid candidate index.\");\r\n\r\n        candidates[_candidateIndex].voteCount++;\r\n        voters[msg.sender] = true;\r\n    }\r\n\r\n    function getAllVotesOfCandiates() public view returns (Candidate[] memory){\r\n        return candidates;\r\n    }\r\n\r\n    function getVotingStatus() public view returns (bool) {\r\n        return (block.timestamp >= votingStart && block.timestamp < votingEnd);\r\n    }\r\n\r\n    function getRemainingTime() public view returns (uint256) {\r\n        require(block.timestamp >= votingStart, \"Voting has not started yet.\");\r\n        if (block.timestamp >= votingEnd) {\r\n            return 0;\r\n    }\r\n        return votingEnd - block.timestamp;\r\n    }\r\n}",
  "sourcePath": "E:\\Code\\blockchain\\VotingO\\contracts\\Voting.sol",
  "compiler": {
    "name": "solc",
    "version": "0.8.20+commit.a1b79de6.Emscripten.clang"
  },
  "schemaVersion": "3.4.16",
  "updatedAt": "2024-07-31T06:29:39.374Z",
  "networkType": "ethereum",
  "devdoc": {
    "kind": "dev",
    "methods": {},
    "version": 1
  },
  "userdoc": {
    "kind": "user",
    "methods": {},
    "version": 1
  }
}